{
  "_format": "hh-sol-artifact-1",
  "contractName": "MagicBrics",
  "sourceName": "contracts/MagicBricsV3.sol",
  "abi": [
    {
      "inputs": [],
      "stateMutability": "nonpayable",
      "type": "constructor"
    },
    {
      "inputs": [
        {
          "internalType": "uint256",
          "name": "value",
          "type": "uint256"
        },
        {
          "internalType": "string",
          "name": "message",
          "type": "string"
        }
      ],
      "name": "IncorrectAdvance",
      "type": "error"
    },
    {
      "anonymous": false,
      "inputs": [
        {
          "indexed": true,
          "internalType": "address",
          "name": "buyer",
          "type": "address"
        },
        {
          "indexed": true,
          "internalType": "uint256",
          "name": "plotNumber",
          "type": "uint256"
        },
        {
          "indexed": true,
          "internalType": "uint256",
          "name": "offerAmount",
          "type": "uint256"
        }
      ],
      "name": "BuyOfferMade",
      "type": "event"
    },
    {
      "anonymous": false,
      "inputs": [
        {
          "indexed": true,
          "internalType": "address",
          "name": "seller",
          "type": "address"
        },
        {
          "indexed": true,
          "internalType": "address",
          "name": "realtor",
          "type": "address"
        },
        {
          "indexed": true,
          "internalType": "uint256",
          "name": "askingPrice",
          "type": "uint256"
        },
        {
          "indexed": false,
          "internalType": "uint256",
          "name": "plotNumber",
          "type": "uint256"
        }
      ],
      "name": "PlotListed",
      "type": "event"
    },
    {
      "anonymous": false,
      "inputs": [
        {
          "indexed": true,
          "internalType": "address",
          "name": "seller",
          "type": "address"
        },
        {
          "indexed": false,
          "internalType": "uint256",
          "name": "plotNumber",
          "type": "uint256"
        }
      ],
      "name": "PlotSaleRevoked",
      "type": "event"
    },
    {
      "anonymous": false,
      "inputs": [
        {
          "indexed": true,
          "internalType": "address",
          "name": "buyer",
          "type": "address"
        },
        {
          "indexed": true,
          "internalType": "uint256",
          "name": "plotNumber",
          "type": "uint256"
        }
      ],
      "name": "PlotSold",
      "type": "event"
    },
    {
      "anonymous": false,
      "inputs": [
        {
          "indexed": true,
          "internalType": "bytes32",
          "name": "role",
          "type": "bytes32"
        },
        {
          "indexed": true,
          "internalType": "bytes32",
          "name": "previousAdminRole",
          "type": "bytes32"
        },
        {
          "indexed": true,
          "internalType": "bytes32",
          "name": "newAdminRole",
          "type": "bytes32"
        }
      ],
      "name": "RoleAdminChanged",
      "type": "event"
    },
    {
      "anonymous": false,
      "inputs": [
        {
          "indexed": true,
          "internalType": "bytes32",
          "name": "role",
          "type": "bytes32"
        },
        {
          "indexed": true,
          "internalType": "address",
          "name": "account",
          "type": "address"
        },
        {
          "indexed": true,
          "internalType": "address",
          "name": "sender",
          "type": "address"
        }
      ],
      "name": "RoleGranted",
      "type": "event"
    },
    {
      "anonymous": false,
      "inputs": [
        {
          "indexed": true,
          "internalType": "bytes32",
          "name": "role",
          "type": "bytes32"
        },
        {
          "indexed": true,
          "internalType": "address",
          "name": "account",
          "type": "address"
        },
        {
          "indexed": true,
          "internalType": "address",
          "name": "sender",
          "type": "address"
        }
      ],
      "name": "RoleRevoked",
      "type": "event"
    },
    {
      "anonymous": false,
      "inputs": [
        {
          "indexed": true,
          "internalType": "address",
          "name": "receiver",
          "type": "address"
        },
        {
          "indexed": true,
          "internalType": "uint256",
          "name": "value",
          "type": "uint256"
        }
      ],
      "name": "ethWithdrawal",
      "type": "event"
    },
    {
      "anonymous": false,
      "inputs": [
        {
          "indexed": true,
          "internalType": "address",
          "name": "registered",
          "type": "address"
        },
        {
          "indexed": true,
          "internalType": "string",
          "name": "registeredAs",
          "type": "string"
        }
      ],
      "name": "registeredAs",
      "type": "event"
    },
    {
      "inputs": [],
      "name": "DEFAULT_ADMIN_ROLE",
      "outputs": [
        {
          "internalType": "bytes32",
          "name": "",
          "type": "bytes32"
        }
      ],
      "stateMutability": "view",
      "type": "function"
    },
    {
      "inputs": [],
      "name": "REALTOR_ROLE",
      "outputs": [
        {
          "internalType": "bytes32",
          "name": "",
          "type": "bytes32"
        }
      ],
      "stateMutability": "view",
      "type": "function"
    },
    {
      "inputs": [],
      "name": "SELLER_ROLE",
      "outputs": [
        {
          "internalType": "bytes32",
          "name": "",
          "type": "bytes32"
        }
      ],
      "stateMutability": "view",
      "type": "function"
    },
    {
      "inputs": [
        {
          "internalType": "uint256",
          "name": "_plotNumber",
          "type": "uint256"
        }
      ],
      "name": "buyerBalance",
      "outputs": [
        {
          "internalType": "uint256",
          "name": "",
          "type": "uint256"
        }
      ],
      "stateMutability": "view",
      "type": "function"
    },
    {
      "inputs": [
        {
          "internalType": "uint256",
          "name": "_plotNumber",
          "type": "uint256"
        }
      ],
      "name": "buyerWithdraw",
      "outputs": [
        {
          "internalType": "bool",
          "name": "success",
          "type": "bool"
        }
      ],
      "stateMutability": "nonpayable",
      "type": "function"
    },
    {
      "inputs": [],
      "name": "contracBalanceWithDraw",
      "outputs": [],
      "stateMutability": "nonpayable",
      "type": "function"
    },
    {
      "inputs": [
        {
          "internalType": "uint256",
          "name": "_plotNumber",
          "type": "uint256"
        }
      ],
      "name": "depositRemainingAmountAndConcludeSale",
      "outputs": [],
      "stateMutability": "payable",
      "type": "function"
    },
    {
      "inputs": [
        {
          "internalType": "bytes32",
          "name": "role",
          "type": "bytes32"
        }
      ],
      "name": "getRoleAdmin",
      "outputs": [
        {
          "internalType": "bytes32",
          "name": "",
          "type": "bytes32"
        }
      ],
      "stateMutability": "view",
      "type": "function"
    },
    {
      "inputs": [
        {
          "internalType": "bytes32",
          "name": "role",
          "type": "bytes32"
        },
        {
          "internalType": "address",
          "name": "account",
          "type": "address"
        }
      ],
      "name": "grantRole",
      "outputs": [],
      "stateMutability": "nonpayable",
      "type": "function"
    },
    {
      "inputs": [
        {
          "internalType": "bytes32",
          "name": "role",
          "type": "bytes32"
        },
        {
          "internalType": "address",
          "name": "account",
          "type": "address"
        }
      ],
      "name": "hasRole",
      "outputs": [
        {
          "internalType": "bool",
          "name": "",
          "type": "bool"
        }
      ],
      "stateMutability": "view",
      "type": "function"
    },
    {
      "inputs": [
        {
          "internalType": "uint256",
          "name": "",
          "type": "uint256"
        }
      ],
      "name": "indexToPlot",
      "outputs": [
        {
          "internalType": "uint256",
          "name": "plotNumber",
          "type": "uint256"
        },
        {
          "internalType": "uint256",
          "name": "totalsqmArea",
          "type": "uint256"
        },
        {
          "internalType": "uint256",
          "name": "askingPrice",
          "type": "uint256"
        },
        {
          "internalType": "string",
          "name": "location",
          "type": "string"
        },
        {
          "internalType": "address",
          "name": "owner",
          "type": "address"
        },
        {
          "internalType": "address",
          "name": "realtor",
          "type": "address"
        },
        {
          "internalType": "address",
          "name": "buyer",
          "type": "address"
        },
        {
          "internalType": "bool",
          "name": "isForSale",
          "type": "bool"
        },
        {
          "internalType": "bool",
          "name": "isSold",
          "type": "bool"
        },
        {
          "internalType": "bool",
          "name": "offerMade",
          "type": "bool"
        },
        {
          "internalType": "bool",
          "name": "offerAccepted",
          "type": "bool"
        }
      ],
      "stateMutability": "view",
      "type": "function"
    },
    {
      "inputs": [
        {
          "internalType": "uint256",
          "name": "_plotNumber",
          "type": "uint256"
        },
        {
          "internalType": "uint256",
          "name": "_totalArea",
          "type": "uint256"
        },
        {
          "internalType": "uint256",
          "name": "_askingPrice",
          "type": "uint256"
        },
        {
          "internalType": "string",
          "name": "_location",
          "type": "string"
        },
        {
          "internalType": "address",
          "name": "_owner",
          "type": "address"
        }
      ],
      "name": "listPlot",
      "outputs": [
        {
          "internalType": "uint256",
          "name": "_plotIndex",
          "type": "uint256"
        }
      ],
      "stateMutability": "payable",
      "type": "function"
    },
    {
      "inputs": [
        {
          "internalType": "uint256",
          "name": "_plotNumber",
          "type": "uint256"
        }
      ],
      "name": "makeBuyOffer",
      "outputs": [],
      "stateMutability": "payable",
      "type": "function"
    },
    {
      "inputs": [
        {
          "internalType": "uint256",
          "name": "",
          "type": "uint256"
        }
      ],
      "name": "propertyIdToOwner",
      "outputs": [
        {
          "internalType": "address",
          "name": "",
          "type": "address"
        }
      ],
      "stateMutability": "view",
      "type": "function"
    },
    {
      "inputs": [
        {
          "internalType": "uint256",
          "name": "_plotNumber",
          "type": "uint256"
        }
      ],
      "name": "realtorBalance",
      "outputs": [
        {
          "internalType": "uint256",
          "name": "_realtorBalance",
          "type": "uint256"
        }
      ],
      "stateMutability": "view",
      "type": "function"
    },
    {
      "inputs": [
        {
          "internalType": "uint256",
          "name": "_plotNumber",
          "type": "uint256"
        }
      ],
      "name": "realtorWithDraw",
      "outputs": [],
      "stateMutability": "nonpayable",
      "type": "function"
    },
    {
      "inputs": [],
      "name": "registerOnPlatFormAsRealtor",
      "outputs": [],
      "stateMutability": "nonpayable",
      "type": "function"
    },
    {
      "inputs": [
        {
          "internalType": "uint256",
          "name": "_plotNumber",
          "type": "uint256"
        }
      ],
      "name": "registerPropertyOnPlatformAsOwner",
      "outputs": [],
      "stateMutability": "nonpayable",
      "type": "function"
    },
    {
      "inputs": [
        {
          "internalType": "bytes32",
          "name": "role",
          "type": "bytes32"
        },
        {
          "internalType": "address",
          "name": "account",
          "type": "address"
        }
      ],
      "name": "renounceRole",
      "outputs": [],
      "stateMutability": "nonpayable",
      "type": "function"
    },
    {
      "inputs": [
        {
          "internalType": "uint256",
          "name": "_plotNumber",
          "type": "uint256"
        }
      ],
      "name": "revokeBuyOffer",
      "outputs": [],
      "stateMutability": "nonpayable",
      "type": "function"
    },
    {
      "inputs": [
        {
          "internalType": "uint256",
          "name": "_plotNumber",
          "type": "uint256"
        }
      ],
      "name": "revokeListing",
      "outputs": [],
      "stateMutability": "nonpayable",
      "type": "function"
    },
    {
      "inputs": [
        {
          "internalType": "bytes32",
          "name": "role",
          "type": "bytes32"
        },
        {
          "internalType": "address",
          "name": "account",
          "type": "address"
        }
      ],
      "name": "revokeRole",
      "outputs": [],
      "stateMutability": "nonpayable",
      "type": "function"
    },
    {
      "inputs": [
        {
          "internalType": "uint256",
          "name": "_plotNumber",
          "type": "uint256"
        }
      ],
      "name": "sellerAcceptOffer",
      "outputs": [],
      "stateMutability": "nonpayable",
      "type": "function"
    },
    {
      "inputs": [
        {
          "internalType": "uint256",
          "name": "_plotNumber",
          "type": "uint256"
        }
      ],
      "name": "sellerBalance",
      "outputs": [
        {
          "internalType": "uint256",
          "name": "",
          "type": "uint256"
        }
      ],
      "stateMutability": "view",
      "type": "function"
    },
    {
      "inputs": [
        {
          "internalType": "uint256",
          "name": "_plotNumber",
          "type": "uint256"
        }
      ],
      "name": "sellerPenalty",
      "outputs": [
        {
          "internalType": "uint256",
          "name": "_penalty",
          "type": "uint256"
        }
      ],
      "stateMutability": "view",
      "type": "function"
    },
    {
      "inputs": [
        {
          "internalType": "uint256",
          "name": "_plotNumber",
          "type": "uint256"
        }
      ],
      "name": "sellerWithdraw",
      "outputs": [
        {
          "internalType": "bool",
          "name": "",
          "type": "bool"
        }
      ],
      "stateMutability": "nonpayable",
      "type": "function"
    },
    {
      "inputs": [
        {
          "internalType": "bytes4",
          "name": "interfaceId",
          "type": "bytes4"
        }
      ],
      "name": "supportsInterface",
      "outputs": [
        {
          "internalType": "bool",
          "name": "",
          "type": "bool"
        }
      ],
      "stateMutability": "view",
      "type": "function"
    },
    {
      "inputs": [],
      "name": "totalContractBalance",
      "outputs": [
        {
          "internalType": "uint256",
          "name": "",
          "type": "uint256"
        }
      ],
      "stateMutability": "view",
      "type": "function"
    },
    {
      "inputs": [],
      "name": "totalPlotsListed",
      "outputs": [
        {
          "internalType": "uint256",
          "name": "",
          "type": "uint256"
        }
      ],
      "stateMutability": "view",
      "type": "function"
    },
    {
      "inputs": [],
      "name": "totalPlotsSold",
      "outputs": [
        {
          "internalType": "uint256",
          "name": "",
          "type": "uint256"
        }
      ],
      "stateMutability": "view",
      "type": "function"
    },
    {
      "inputs": [],
      "name": "whoosh",
      "outputs": [],
      "stateMutability": "nonpayable",
      "type": "function"
    }
  ],
  "bytecode": "0x60806040523480156200001157600080fd5b5060016000819055506200002f6000801b33620000ad60201b60201c565b620000617ff962acfbab8ce8b5063e7eb2e741d447f857c50333efedc97d59cbe8bac576e133620000ad60201b60201c565b620000a77f43f25613eb2f15fb17222a5d424ca2655743e71265d98e4b93c05e5fb589ecde73ab8483f64d9c6d1ecf9b849ae677dd3315835cb2620000c360201b60201c565b62000227565b620000bf8282620000c360201b60201c565b5050565b620000d58282620001b460201b60201c565b620001b057600180600084815260200190815260200160002060000160008373ffffffffffffffffffffffffffffffffffffffff1673ffffffffffffffffffffffffffffffffffffffff16815260200190815260200160002060006101000a81548160ff021916908315150217905550620001556200021f60201b60201c565b73ffffffffffffffffffffffffffffffffffffffff168173ffffffffffffffffffffffffffffffffffffffff16837f2f8788117e7eff1d82e926ec794901d17c78024a50270940304540a733656f0d60405160405180910390a45b5050565b60006001600084815260200190815260200160002060000160008373ffffffffffffffffffffffffffffffffffffffff1673ffffffffffffffffffffffffffffffffffffffff16815260200190815260200160002060009054906101000a900460ff16905092915050565b600033905090565b615fe680620002376000396000f3fe6080604052600436106101d85760003560e01c806388d0a65b11610102578063bac03cd711610095578063d547741f11610064578063d547741f146106e7578063dbe4613d14610710578063e4d211c51461073b578063fd0c4d5d14610766576101d8565b8063bac03cd71461062d578063bd8ed2dc14610658578063c0cfc9b314610681578063cf9a881c146106be576101d8565b8063a217fddf116100d1578063a217fddf14610571578063b03fd85a1461059c578063b343bd5d146105d9578063b7ca871414610616576101d8565b806388d0a65b146104b25780638b3e40f6146104db57806391d14854146105185780639a5e7aed14610555576101d8565b80634f7116131161017a57806373df08fb1161014957806373df08fb146103f85780637edda56114610435578063864ae8cd1461045e57806386dba3951461049b576101d8565b80634f711613146103195780635099094814610349578063526f652d146103905780636b574cb1146103cd576101d8565b806336568abe116101b657806336568abe146102805780633d8fefe3146102a957806340ac0ebe146102d257806348bf7c6a146102fd576101d8565b806301ffc9a7146101dd578063248a9ca31461021a5780632f2ff15d14610257575b600080fd5b3480156101e957600080fd5b5061020460048036038101906101ff919061449b565b61077d565b6040516102119190614ca7565b60405180910390f35b34801561022657600080fd5b50610241600480360381019061023c919061442e565b6107f7565b60405161024e9190614cc2565b60405180910390f35b34801561026357600080fd5b5061027e6004803603810190610279919061445b565b610817565b005b34801561028c57600080fd5b506102a760048036038101906102a2919061445b565b610838565b005b3480156102b557600080fd5b506102d060048036038101906102cb91906144c8565b6108bb565b005b3480156102de57600080fd5b506102e7610abb565b6040516102f491906151bf565b60405180910390f35b610317600480360381019061031291906144c8565b610ac1565b005b610333600480360381019061032e91906144f5565b610faf565b60405161034091906151bf565b60405180910390f35b34801561035557600080fd5b50610370600480360381019061036b91906144c8565b61156a565b6040516103879b9a999897969594939291906151da565b60405180910390f35b34801561039c57600080fd5b506103b760048036038101906103b291906144c8565b6116e0565b6040516103c49190614c8c565b60405180910390f35b3480156103d957600080fd5b506103e2611713565b6040516103ef9190614cc2565b60405180910390f35b34801561040457600080fd5b5061041f600480360381019061041a91906144c8565b611737565b60405161042c91906151bf565b60405180910390f35b34801561044157600080fd5b5061045c600480360381019061045791906144c8565b6117fd565b005b34801561046a57600080fd5b50610485600480360381019061048091906144c8565b611ad1565b6040516104929190614ca7565b60405180910390f35b3480156104a757600080fd5b506104b0612174565b005b3480156104be57600080fd5b506104d960048036038101906104d491906144c8565b61232d565b005b3480156104e757600080fd5b5061050260048036038101906104fd91906144c8565b612641565b60405161050f91906151bf565b60405180910390f35b34801561052457600080fd5b5061053f600480360381019061053a919061445b565b6126a3565b60405161054c9190614ca7565b60405180910390f35b61056f600480360381019061056a91906144c8565b61270e565b005b34801561057d57600080fd5b50610586612b3b565b6040516105939190614cc2565b60405180910390f35b3480156105a857600080fd5b506105c360048036038101906105be91906144c8565b612b42565b6040516105d09190614ca7565b60405180910390f35b3480156105e557600080fd5b5061060060048036038101906105fb91906144c8565b613411565b60405161060d91906151bf565b60405180910390f35b34801561062257600080fd5b5061062b61346e565b005b34801561063957600080fd5b50610642613487565b60405161064f91906151bf565b60405180910390f35b34801561066457600080fd5b5061067f600480360381019061067a91906144c8565b61348d565b005b34801561068d57600080fd5b506106a860048036038101906106a391906144c8565b613a45565b6040516106b591906151bf565b60405180910390f35b3480156106ca57600080fd5b506106e560048036038101906106e091906144c8565b613aa7565b005b3480156106f357600080fd5b5061070e6004803603810190610709919061445b565b613bbc565b005b34801561071c57600080fd5b50610725613bdd565b6040516107329190614cc2565b60405180910390f35b34801561074757600080fd5b50610750613c01565b60405161075d91906151bf565b60405180910390f35b34801561077257600080fd5b5061077b613c07565b005b60007f7965db0b000000000000000000000000000000000000000000000000000000007bffffffffffffffffffffffffffffffffffffffffffffffffffffffff1916827bffffffffffffffffffffffffffffffffffffffffffffffffffffffff191614806107f057506107ef82613d66565b5b9050919050565b600060016000838152602001908152602001600020600101549050919050565b610820826107f7565b61082981613dd0565b6108338383613de4565b505050565b610840613ec4565b73ffffffffffffffffffffffffffffffffffffffff168173ffffffffffffffffffffffffffffffffffffffff16146108ad576040517f08c379a00000000000000000000000000000000000000000000000000000000081526004016108a49061517f565b60405180910390fd5b6108b78282613ecc565b5050565b6005600082815260200190815260200160002060040160009054906101000a900473ffffffffffffffffffffffffffffffffffffffff1673ffffffffffffffffffffffffffffffffffffffff163373ffffffffffffffffffffffffffffffffffffffff161461095f576040517f08c379a00000000000000000000000000000000000000000000000000000000081526004016109569061519f565b60405180910390fd5b6005600082815260200190815260200160002060060160149054906101000a900460ff166109c2576040517f08c379a00000000000000000000000000000000000000000000000000000000081526004016109b990614d7f565b60405180910390fd5b6005600082815260200190815260200160002060060160169054906101000a900460ff16610a25576040517f08c379a0000000000000000000000000000000000000000000000000000000008152600401610a1c906150df565b60405180910390fd5b6005600082815260200190815260200160002060060160179054906101000a900460ff1615610a89576040517f08c379a0000000000000000000000000000000000000000000000000000000008152600401610a809061505f565b60405180910390fd5b60016005600083815260200190815260200160002060060160176101000a81548160ff02191690831515021790555050565b60035481565b6005600082815260200190815260200160002060060160149054906101000a900460ff16610b24576040517f08c379a0000000000000000000000000000000000000000000000000000000008152600401610b1b90614e7f565b60405180910390fd5b6005600082815260200190815260200160002060060160159054906101000a900460ff1615610b88576040517f08c379a0000000000000000000000000000000000000000000000000000000008152600401610b7f90614fbf565b60405180910390fd5b6005600082815260200190815260200160002060040160009054906101000a900473ffffffffffffffffffffffffffffffffffffffff1673ffffffffffffffffffffffffffffffffffffffff163373ffffffffffffffffffffffffffffffffffffffff161415610c2d576040517f08c379a0000000000000000000000000000000000000000000000000000000008152600401610c249061501f565b60405180910390fd5b6005600082815260200190815260200160002060060160179054906101000a900460ff1615610c91576040517f08c379a0000000000000000000000000000000000000000000000000000000008152600401610c8890614edf565b60405180910390fd5b3373ffffffffffffffffffffffffffffffffffffffff166005600083815260200190815260200160002060060160009054906101000a900473ffffffffffffffffffffffffffffffffffffffff1673ffffffffffffffffffffffffffffffffffffffff161415610d36576040517f08c379a0000000000000000000000000000000000000000000000000000000008152600401610d2d90614e1f565b60405180910390fd5b600060646005600084815260200190815260200160002060020154600a610d5d919061539b565b610d67919061536a565b9050600034905081811015610db1576040517f08c379a0000000000000000000000000000000000000000000000000000000008152600401610da890614d9f565b60405180910390fd5b80600960003373ffffffffffffffffffffffffffffffffffffffff1673ffffffffffffffffffffffffffffffffffffffff1681526020019081526020016000206000828254610e009190615314565b9250508190555080600a600085815260200190815260200160002060003373ffffffffffffffffffffffffffffffffffffffff1673ffffffffffffffffffffffffffffffffffffffff16815260200190815260200160002060010181905550336005600085815260200190815260200160002060060160006101000a81548173ffffffffffffffffffffffffffffffffffffffff021916908373ffffffffffffffffffffffffffffffffffffffff16021790555060016005600085815260200190815260200160002060060160166101000a81548160ff0219169083151502179055506001600b60003373ffffffffffffffffffffffffffffffffffffffff1673ffffffffffffffffffffffffffffffffffffffff168152602001908152602001600020600085815260200190815260200160002060006101000a81548160ff0219169083151502179055503460046000828254610f5e9190615314565b9250508190555080833373ffffffffffffffffffffffffffffffffffffffff167f19198df80332cc980c7a594161cc08a43ea449519fd86c8467cb9c6b85931c1e60405160405180910390a4505050565b6000610fdb7ff962acfbab8ce8b5063e7eb2e741d447f857c50333efedc97d59cbe8bac576e1336126a3565b61101a576040517f08c379a000000000000000000000000000000000000000000000000000000000815260040161101190614fdf565b60405180910390fd5b6005600087815260200190815260200160002060060160149054906101000a900460ff161561107e576040517f08c379a000000000000000000000000000000000000000000000000000000000815260040161107590614f3f565b60405180910390fd5b6006600087815260200190815260200160002060009054906101000a900473ffffffffffffffffffffffffffffffffffffffff1673ffffffffffffffffffffffffffffffffffffffff168273ffffffffffffffffffffffffffffffffffffffff161461111f576040517f08c379a00000000000000000000000000000000000000000000000000000000081526004016111169061507f565b60405180910390fd5b6000606485600a611130919061539b565b61113a919061536a565b90506000606482600261114d919061539b565b611157919061536a565b90506000341180156111695750803410155b6111a8576040517f08c379a000000000000000000000000000000000000000000000000000000000815260040161119f90614e9f565b60405180910390fd5b80600a60008a81526020019081526020016000206000600660008c815260200190815260200160002060009054906101000a900473ffffffffffffffffffffffffffffffffffffffff1673ffffffffffffffffffffffffffffffffffffffff1673ffffffffffffffffffffffffffffffffffffffff1681526020019081526020016000206003018190555033600860008a815260200190815260200160002060006101000a81548173ffffffffffffffffffffffffffffffffffffffff021916908373ffffffffffffffffffffffffffffffffffffffff1602179055506002600081548092919060010191905055506040518061016001604052808981526020018881526020018781526020018681526020018573ffffffffffffffffffffffffffffffffffffffff1681526020013373ffffffffffffffffffffffffffffffffffffffff168152602001600073ffffffffffffffffffffffffffffffffffffffff16815260200160011515815260200160001515815260200160001515815260200160001515815250600560008a8152602001908152602001600020600082015181600001556020820151816001015560408201518160020155606082015181600301908051906020019061137f929190614287565b5060808201518160040160006101000a81548173ffffffffffffffffffffffffffffffffffffffff021916908373ffffffffffffffffffffffffffffffffffffffff16021790555060a08201518160050160006101000a81548173ffffffffffffffffffffffffffffffffffffffff021916908373ffffffffffffffffffffffffffffffffffffffff16021790555060c08201518160060160006101000a81548173ffffffffffffffffffffffffffffffffffffffff021916908373ffffffffffffffffffffffffffffffffffffffff16021790555060e08201518160060160146101000a81548160ff0219169083151502179055506101008201518160060160156101000a81548160ff0219169083151502179055506101208201518160060160166101000a81548160ff0219169083151502179055506101408201518160060160176101000a81548160ff02191690831515021790555090505034600460008282546114ed9190615314565b92505081905550853373ffffffffffffffffffffffffffffffffffffffff168573ffffffffffffffffffffffffffffffffffffffff167f2f029f086c2135372996eac1b1ef3f5ea2ffc51724f60ae0f2c5eb5fb93a2cd28b60405161155291906151bf565b60405180910390a46002549250505095945050505050565b600560205280600052604060002060009150905080600001549080600101549080600201549080600301805461159f90615513565b80601f01602080910402602001604051908101604052809291908181526020018280546115cb90615513565b80156116185780601f106115ed57610100808354040283529160200191611618565b820191906000526020600020905b8154815290600101906020018083116115fb57829003601f168201915b5050505050908060040160009054906101000a900473ffffffffffffffffffffffffffffffffffffffff16908060050160009054906101000a900473ffffffffffffffffffffffffffffffffffffffff16908060060160009054906101000a900473ffffffffffffffffffffffffffffffffffffffff16908060060160149054906101000a900460ff16908060060160159054906101000a900460ff16908060060160169054906101000a900460ff16908060060160179054906101000a900460ff1690508b565b60066020528060005260406000206000915054906101000a900473ffffffffffffffffffffffffffffffffffffffff1681565b7ff962acfbab8ce8b5063e7eb2e741d447f857c50333efedc97d59cbe8bac576e181565b60006117637ff962acfbab8ce8b5063e7eb2e741d447f857c50333efedc97d59cbe8bac576e1336126a3565b6117a2576040517f08c379a000000000000000000000000000000000000000000000000000000000815260040161179990614ebf565b60405180910390fd5b600a600083815260200190815260200160002060003373ffffffffffffffffffffffffffffffffffffffff1673ffffffffffffffffffffffffffffffffffffffff168152602001908152602001600020600201549050919050565b6005600082815260200190815260200160002060060160149054906101000a900460ff16611860576040517f08c379a000000000000000000000000000000000000000000000000000000000815260040161185790614e7f565b60405180910390fd5b6005600082815260200190815260200160002060060160009054906101000a900473ffffffffffffffffffffffffffffffffffffffff1673ffffffffffffffffffffffffffffffffffffffff163373ffffffffffffffffffffffffffffffffffffffff1614611904576040517f08c379a00000000000000000000000000000000000000000000000000000000081526004016118fb90614f7f565b60405180910390fd5b6005600082815260200190815260200160002060060160159054906101000a900460ff1615611968576040517f08c379a000000000000000000000000000000000000000000000000000000000815260040161195f90614fbf565b60405180910390fd5b60006064600a600084815260200190815260200160002060003373ffffffffffffffffffffffffffffffffffffffff1673ffffffffffffffffffffffffffffffffffffffff16815260200190815260200160002060010154600a6119cc919061539b565b6119d6919061536a565b905080600a600084815260200190815260200160002060003373ffffffffffffffffffffffffffffffffffffffff1673ffffffffffffffffffffffffffffffffffffffff1681526020019081526020016000206001016000828254611a3b91906153f5565b925050819055506005600083815260200190815260200160002060060160006101000a81549073ffffffffffffffffffffffffffffffffffffffff02191690556005600083815260200190815260200160002060060160166101000a81549060ff02191690556001600d600084815260200190815260200160002060006101000a81548160ff0219169083151502179055505050565b600060026000541415611b19576040517f08c379a0000000000000000000000000000000000000000000000000000000008152600401611b109061511f565b60405180910390fd5b6002600081905550611b4b7f43f25613eb2f15fb17222a5d424ca2655743e71265d98e4b93c05e5fb589ecde336126a3565b611b8a576040517f08c379a0000000000000000000000000000000000000000000000000000000008152600401611b819061503f565b60405180910390fd5b6005600083815260200190815260200160002060040160009054906101000a900473ffffffffffffffffffffffffffffffffffffffff1673ffffffffffffffffffffffffffffffffffffffff163373ffffffffffffffffffffffffffffffffffffffff1614611c2e576040517f08c379a0000000000000000000000000000000000000000000000000000000008152600401611c2590614d3f565b60405180910390fd5b600e6000838152602001908152602001600020544211611c83576040517f08c379a0000000000000000000000000000000000000000000000000000000008152600401611c7a90614f1f565b60405180910390fd5b6005600083815260200190815260200160002060060160159054906101000a900460ff16611ce6576040517f08c379a0000000000000000000000000000000000000000000000000000000008152600401611cdd90614d5f565b60405180910390fd5b60006005600084815260200190815260200160002060060160009054906101000a900473ffffffffffffffffffffffffffffffffffffffff1690506000600a600085815260200190815260200160002060008373ffffffffffffffffffffffffffffffffffffffff1673ffffffffffffffffffffffffffffffffffffffff16815260200190815260200160002060010154905060008111611dbc576040517f08c379a0000000000000000000000000000000000000000000000000000000008152600401611db390614e5f565b60405180910390fd5b60006064826001611dcd919061539b565b611dd7919061536a565b905060006008600087815260200190815260200160002060009054906101000a900473ffffffffffffffffffffffffffffffffffffffff16905081600a600088815260200190815260200160002060008373ffffffffffffffffffffffffffffffffffffffff1673ffffffffffffffffffffffffffffffffffffffff1681526020019081526020016000206002018190555060008284611e7791906153f5565b9050846006600089815260200190815260200160002060006101000a81548173ffffffffffffffffffffffffffffffffffffffff021916908373ffffffffffffffffffffffffffffffffffffffff1602179055506005600088815260200190815260200160002060008082016000905560018201600090556002820160009055600382016000611f07919061430d565b6004820160006101000a81549073ffffffffffffffffffffffffffffffffffffffff02191690556005820160006101000a81549073ffffffffffffffffffffffffffffffffffffffff02191690556006820160006101000a81549073ffffffffffffffffffffffffffffffffffffffff02191690556006820160146101000a81549060ff02191690556006820160156101000a81549060ff02191690556006820160166101000a81549060ff02191690556006820160176101000a81549060ff0219169055505060026000815480929190611fe1906154e9565b919050555060036000815480929190611ff990615576565b9190505550836004600082825461201091906153f5565b92505081905550600a600088815260200190815260200160002060003373ffffffffffffffffffffffffffffffffffffffff1673ffffffffffffffffffffffffffffffffffffffff16815260200190815260200160002060000160009055833373ffffffffffffffffffffffffffffffffffffffff167f21761cfe592027846d2f5f8eebdb7f0009596f888a58a082514989a8f21a3fee60405160405180910390a360003373ffffffffffffffffffffffffffffffffffffffff16826040516120d890614c28565b60006040518083038185875af1925050503d8060008114612115576040519150601f19603f3d011682016040523d82523d6000602084013e61211a565b606091505b505090508061215e576040517f08c379a000000000000000000000000000000000000000000000000000000000815260040161215590614f9f565b60405180910390fd5b8096505050505050506001600081905550919050565b600260005414156121ba576040517f08c379a00000000000000000000000000000000000000000000000000000000081526004016121b19061511f565b60405180910390fd5b60026000819055506000801b6121cf81613dd0565b600047905080600460008282546121e691906153f5565b9250508190555060008111612230576040517f08c379a000000000000000000000000000000000000000000000000000000000815260040161222790614e3f565b60405180910390fd5b473373ffffffffffffffffffffffffffffffffffffffff167f21761cfe592027846d2f5f8eebdb7f0009596f888a58a082514989a8f21a3fee60405160405180910390a360003373ffffffffffffffffffffffffffffffffffffffff168260405161229a90614c28565b60006040518083038185875af1925050503d80600081146122d7576040519150601f19603f3d011682016040523d82523d6000602084013e6122dc565b606091505b5050905080612320576040517f08c379a000000000000000000000000000000000000000000000000000000000815260040161231790614f9f565b60405180910390fd5b5050506001600081905550565b60026000541415612373576040517f08c379a000000000000000000000000000000000000000000000000000000000815260040161236a9061511f565b60405180910390fd5b60026000819055506008600082815260200190815260200160002060009054906101000a900473ffffffffffffffffffffffffffffffffffffffff1673ffffffffffffffffffffffffffffffffffffffff163373ffffffffffffffffffffffffffffffffffffffff161461241c576040517f08c379a00000000000000000000000000000000000000000000000000000000081526004016124139061513f565b60405180910390fd5b6000600a600083815260200190815260200160002060003373ffffffffffffffffffffffffffffffffffffffff1673ffffffffffffffffffffffffffffffffffffffff168152602001908152602001600020600201549050600081116124b7576040517f08c379a00000000000000000000000000000000000000000000000000000000081526004016124ae90614e3f565b60405180910390fd5b600a600083815260200190815260200160002060003373ffffffffffffffffffffffffffffffffffffffff1673ffffffffffffffffffffffffffffffffffffffff168152602001908152602001600020600201600090556008600083815260200190815260200160002060006101000a81549073ffffffffffffffffffffffffffffffffffffffff0219169055803373ffffffffffffffffffffffffffffffffffffffff167f21761cfe592027846d2f5f8eebdb7f0009596f888a58a082514989a8f21a3fee60405160405180910390a360003373ffffffffffffffffffffffffffffffffffffffff16826040516125ae90614c28565b60006040518083038185875af1925050503d80600081146125eb576040519150601f19603f3d011682016040523d82523d6000602084013e6125f0565b606091505b5050905080612634576040517f08c379a000000000000000000000000000000000000000000000000000000000815260040161262b90614f9f565b60405180910390fd5b5050600160008190555050565b600080600a600084815260200190815260200160002060003373ffffffffffffffffffffffffffffffffffffffff1673ffffffffffffffffffffffffffffffffffffffff16815260200190815260200160002060000154905080915050919050565b60006001600084815260200190815260200160002060000160008373ffffffffffffffffffffffffffffffffffffffff1673ffffffffffffffffffffffffffffffffffffffff16815260200190815260200160002060009054906101000a900460ff16905092915050565b6005600082815260200190815260200160002060060160009054906101000a900473ffffffffffffffffffffffffffffffffffffffff1673ffffffffffffffffffffffffffffffffffffffff163373ffffffffffffffffffffffffffffffffffffffff16146127b2576040517f08c379a00000000000000000000000000000000000000000000000000000000081526004016127a99061515f565b60405180910390fd5b6005600082815260200190815260200160002060060160159054906101000a900460ff1615612816576040517f08c379a000000000000000000000000000000000000000000000000000000000815260040161280d90614eff565b60405180910390fd5b6005600082815260200190815260200160002060060160179054906101000a900460ff16612879576040517f08c379a000000000000000000000000000000000000000000000000000000000815260040161287090614dbf565b60405180910390fd5b6000600960003373ffffffffffffffffffffffffffffffffffffffff1673ffffffffffffffffffffffffffffffffffffffff16815260200190815260200160002054905060008160056000858152602001908152602001600020600201546128e191906153f5565b905080341015612926576040517f08c379a000000000000000000000000000000000000000000000000000000000815260040161291d90614fff565b60405180910390fd5b60006006600085815260200190815260200160002060009054906101000a900473ffffffffffffffffffffffffffffffffffffffff16905034600a600086815260200190815260200160002060003373ffffffffffffffffffffffffffffffffffffffff1673ffffffffffffffffffffffffffffffffffffffff16815260200190815260200160002060010160008282546129c19190615314565b92505081905550600a600085815260200190815260200160002060003373ffffffffffffffffffffffffffffffffffffffff1673ffffffffffffffffffffffffffffffffffffffff16815260200190815260200160002060010154600a600086815260200190815260200160002060008373ffffffffffffffffffffffffffffffffffffffff1673ffffffffffffffffffffffffffffffffffffffff1681526020019081526020016000206000016000828254612a7e9190615314565b925050819055503460046000828254612a979190615314565b9250508190555060016005600086815260200190815260200160002060060160156101000a81548160ff02191690831515021790555060b442612ada9190615314565b600e600086815260200190815260200160002081905550833373ffffffffffffffffffffffffffffffffffffffff167fac2e3e88f686f51a0f26087d1457ee4f9f7510579f8bc11691d0ef75531e151360405160405180910390a350505050565b6000801b81565b600060026000541415612b8a576040517f08c379a0000000000000000000000000000000000000000000000000000000008152600401612b819061511f565b60405180910390fd5b6002600081905550600073ffffffffffffffffffffffffffffffffffffffff163373ffffffffffffffffffffffffffffffffffffffff161415612c02576040517f08c379a0000000000000000000000000000000000000000000000000000000008152600401612bf990614dff565b60405180910390fd5b600b60003373ffffffffffffffffffffffffffffffffffffffff1673ffffffffffffffffffffffffffffffffffffffff168152602001908152602001600020600083815260200190815260200160002060009054906101000a900460ff16612c9f576040517f08c379a0000000000000000000000000000000000000000000000000000000008152600401612c969061509f565b60405180910390fd5b600c600083815260200190815260200160002060009054906101000a900460ff1680612ce85750600d600083815260200190815260200160002060009054906101000a900460ff165b612d27576040517f08c379a0000000000000000000000000000000000000000000000000000000008152600401612d1e90614f5f565b60405180910390fd5b6005600083815260200190815260200160002060040160009054906101000a900473ffffffffffffffffffffffffffffffffffffffff1673ffffffffffffffffffffffffffffffffffffffff163373ffffffffffffffffffffffffffffffffffffffff161415612dcc576040517f08c379a0000000000000000000000000000000000000000000000000000000008152600401612dc390614d1f565b60405180910390fd5b600d600083815260200190815260200160002060009054906101000a900460ff1661304a576000600a600084815260200190815260200160002060003373ffffffffffffffffffffffffffffffffffffffff1673ffffffffffffffffffffffffffffffffffffffff1681526020019081526020016000206001015490506000600c600085815260200190815260200160002060006101000a81548160ff0219169083151502179055506000600d600085815260200190815260200160002060006101000a81548160ff02191690831515021790555060008111612ee4576040517f08c379a0000000000000000000000000000000000000000000000000000000008152600401612edb90614e5f565b60405180910390fd5b600a600084815260200190815260200160002060003373ffffffffffffffffffffffffffffffffffffffff1673ffffffffffffffffffffffffffffffffffffffff168152602001908152602001600020600101600090558060046000828254612f4d91906153f5565b92505081905550803373ffffffffffffffffffffffffffffffffffffffff167f21761cfe592027846d2f5f8eebdb7f0009596f888a58a082514989a8f21a3fee60405160405180910390a33373ffffffffffffffffffffffffffffffffffffffff1681604051612fbc90614c28565b60006040518083038185875af1925050503d8060008114612ff9576040519150601f19603f3d011682016040523d82523d6000602084013e612ffe565b606091505b50508092505081613044576040517f08c379a000000000000000000000000000000000000000000000000000000000815260040161303b90614f9f565b60405180910390fd5b50613404565b60006064600a600085815260200190815260200160002060003373ffffffffffffffffffffffffffffffffffffffff1673ffffffffffffffffffffffffffffffffffffffff16815260200190815260200160002060010154600a6130ae919061539b565b6130b8919061536a565b905080600a600085815260200190815260200160002060003373ffffffffffffffffffffffffffffffffffffffff1673ffffffffffffffffffffffffffffffffffffffff168152602001908152602001600020600101600082825461311d91906153f5565b925050819055506000600a600085815260200190815260200160002060003373ffffffffffffffffffffffffffffffffffffffff1673ffffffffffffffffffffffffffffffffffffffff168152602001908152602001600020600101549050600a600085815260200190815260200160002060006006600087815260200190815260200160002060009054906101000a900473ffffffffffffffffffffffffffffffffffffffff1673ffffffffffffffffffffffffffffffffffffffff1673ffffffffffffffffffffffffffffffffffffffff168152602001908152602001600020600301600090556000600c600086815260200190815260200160002060006101000a81548160ff0219169083151502179055506000600d600086815260200190815260200160002060006101000a81548160ff021916908315150217905550600081116132a1576040517f08c379a000000000000000000000000000000000000000000000000000000000815260040161329890614e5f565b60405180910390fd5b80600460008282546132b391906153f5565b92505081905550600a600085815260200190815260200160002060003373ffffffffffffffffffffffffffffffffffffffff1673ffffffffffffffffffffffffffffffffffffffff16815260200190815260200160002060010160009055803373ffffffffffffffffffffffffffffffffffffffff167f21761cfe592027846d2f5f8eebdb7f0009596f888a58a082514989a8f21a3fee60405160405180910390a33373ffffffffffffffffffffffffffffffffffffffff168160405161337990614c28565b60006040518083038185875af1925050503d80600081146133b6576040519150601f19603f3d011682016040523d82523d6000602084013e6133bb565b606091505b50508093505082613401576040517f08c379a00000000000000000000000000000000000000000000000000000000081526004016133f890614f9f565b60405180910390fd5b50505b6001600081905550919050565b6000600a600083815260200190815260200160002060003373ffffffffffffffffffffffffffffffffffffffff1673ffffffffffffffffffffffffffffffffffffffff168152602001908152602001600020600301549050919050565b3373ffffffffffffffffffffffffffffffffffffffff16ff5b60045481565b6005600082815260200190815260200160002060060160149054906101000a900460ff166134f0576040517f08c379a00000000000000000000000000000000000000000000000000000000081526004016134e7906150bf565b60405180910390fd5b6005600082815260200190815260200160002060060160149054906101000a900460ff16156138ff576005600082815260200190815260200160002060040160009054906101000a900473ffffffffffffffffffffffffffffffffffffffff1673ffffffffffffffffffffffffffffffffffffffff163373ffffffffffffffffffffffffffffffffffffffff16146135bd576040517f08c379a00000000000000000000000000000000000000000000000000000000081526004016135b4906150ff565b60405180910390fd5b6000600a600083815260200190815260200160002060003373ffffffffffffffffffffffffffffffffffffffff1673ffffffffffffffffffffffffffffffffffffffff16815260200190815260200160002060030154905060006005600084815260200190815260200160002060060160009054906101000a900473ffffffffffffffffffffffffffffffffffffffff169050600a600084815260200190815260200160002060003373ffffffffffffffffffffffffffffffffffffffff1673ffffffffffffffffffffffffffffffffffffffff16815260200190815260200160002060010154826136af9190615314565b600a600085815260200190815260200160002060008373ffffffffffffffffffffffffffffffffffffffff1673ffffffffffffffffffffffffffffffffffffffff16815260200190815260200160002060010160008282546137119190615314565b92505081905550600a600084815260200190815260200160002060008273ffffffffffffffffffffffffffffffffffffffff1673ffffffffffffffffffffffffffffffffffffffff16815260200190815260200160002060010154600481905550600a600084815260200190815260200160002060003373ffffffffffffffffffffffffffffffffffffffff1673ffffffffffffffffffffffffffffffffffffffff168152602001908152602001600020600001600090556005600084815260200190815260200160002060008082016000905560018201600090556002820160009055600382016000613805919061430d565b6004820160006101000a81549073ffffffffffffffffffffffffffffffffffffffff02191690556005820160006101000a81549073ffffffffffffffffffffffffffffffffffffffff02191690556006820160006101000a81549073ffffffffffffffffffffffffffffffffffffffff02191690556006820160146101000a81549060ff02191690556006820160156101000a81549060ff02191690556006820160166101000a81549060ff02191690556006820160176101000a81549060ff021916905550506001600c600085815260200190815260200160002060006101000a81548160ff0219169083151502179055505050613a2f565b600560008281526020019081526020016000206000808201600090556001820160009055600282016000905560038201600061393b919061430d565b6004820160006101000a81549073ffffffffffffffffffffffffffffffffffffffff02191690556005820160006101000a81549073ffffffffffffffffffffffffffffffffffffffff02191690556006820160006101000a81549073ffffffffffffffffffffffffffffffffffffffff02191690556006820160146101000a81549060ff02191690556006820160156101000a81549060ff02191690556006820160166101000a81549060ff02191690556006820160176101000a81549060ff021916905550506001600c600083815260200190815260200160002060006101000a81548160ff0219169083151502179055505b6002600081548092919060019003919050555050565b600080600a600084815260200190815260200160002060003373ffffffffffffffffffffffffffffffffffffffff1673ffffffffffffffffffffffffffffffffffffffff16815260200190815260200160002060010154905080915050919050565b613ad17f43f25613eb2f15fb17222a5d424ca2655743e71265d98e4b93c05e5fb589ecde336126a3565b613b10576040517f08c379a0000000000000000000000000000000000000000000000000000000008152600401613b0790614ddf565b60405180910390fd5b336006600083815260200190815260200160002060006101000a81548173ffffffffffffffffffffffffffffffffffffffff021916908373ffffffffffffffffffffffffffffffffffffffff160217905550604051613b6e90614c77565b60405180910390203373ffffffffffffffffffffffffffffffffffffffff167fd33d3c24f587d4e615abc06511edf07cec1fdc0ce4e15b20783ab2c0598571c460405160405180910390a350565b613bc5826107f7565b613bce81613dd0565b613bd88383613ecc565b505050565b7f43f25613eb2f15fb17222a5d424ca2655743e71265d98e4b93c05e5fb589ecde81565b60025481565b613c317ff962acfbab8ce8b5063e7eb2e741d447f857c50333efedc97d59cbe8bac576e1336126a3565b613c70576040517f08c379a0000000000000000000000000000000000000000000000000000000008152600401613c6790614ddf565b60405180910390fd5b604051806040016040528060001515815260200160011515815250600760003373ffffffffffffffffffffffffffffffffffffffff1673ffffffffffffffffffffffffffffffffffffffff16815260200190815260200160002060008201518160000160006101000a81548160ff02191690831515021790555060208201518160000160016101000a81548160ff021916908315150217905550905050604051613d1990614c13565b60405180910390203373ffffffffffffffffffffffffffffffffffffffff167fd33d3c24f587d4e615abc06511edf07cec1fdc0ce4e15b20783ab2c0598571c460405160405180910390a3565b60007f01ffc9a7000000000000000000000000000000000000000000000000000000007bffffffffffffffffffffffffffffffffffffffffffffffffffffffff1916827bffffffffffffffffffffffffffffffffffffffffffffffffffffffff1916149050919050565b613de181613ddc613ec4565b613fae565b50565b613dee82826126a3565b613ec057600180600084815260200190815260200160002060000160008373ffffffffffffffffffffffffffffffffffffffff1673ffffffffffffffffffffffffffffffffffffffff16815260200190815260200160002060006101000a81548160ff021916908315150217905550613e65613ec4565b73ffffffffffffffffffffffffffffffffffffffff168173ffffffffffffffffffffffffffffffffffffffff16837f2f8788117e7eff1d82e926ec794901d17c78024a50270940304540a733656f0d60405160405180910390a45b5050565b600033905090565b613ed682826126a3565b15613faa5760006001600084815260200190815260200160002060000160008373ffffffffffffffffffffffffffffffffffffffff1673ffffffffffffffffffffffffffffffffffffffff16815260200190815260200160002060006101000a81548160ff021916908315150217905550613f4f613ec4565b73ffffffffffffffffffffffffffffffffffffffff168173ffffffffffffffffffffffffffffffffffffffff16837ff6391f5c32d9c69d2a47ea670b442974b53935d1edc7fd64eb21e047a839171b60405160405180910390a45b5050565b613fb882826126a3565b61404757613fdd8173ffffffffffffffffffffffffffffffffffffffff16601461404b565b613feb8360001c602061404b565b604051602001613ffc929190614c3d565b6040516020818303038152906040526040517f08c379a000000000000000000000000000000000000000000000000000000000815260040161403e9190614cdd565b60405180910390fd5b5050565b60606000600283600261405e919061539b565b6140689190615314565b67ffffffffffffffff8111156140815761408061567b565b5b6040519080825280601f01601f1916602001820160405280156140b35781602001600182028036833780820191505090505b5090507f3000000000000000000000000000000000000000000000000000000000000000816000815181106140eb576140ea61564c565b5b60200101907effffffffffffffffffffffffffffffffffffffffffffffffffffffffffffff1916908160001a9053507f78000000000000000000000000000000000000000000000000000000000000008160018151811061414f5761414e61564c565b5b60200101907effffffffffffffffffffffffffffffffffffffffffffffffffffffffffffff1916908160001a9053506000600184600261418f919061539b565b6141999190615314565b90505b6001811115614239577f3031323334353637383961626364656600000000000000000000000000000000600f8616601081106141db576141da61564c565b5b1a60f81b8282815181106141f2576141f161564c565b5b60200101907effffffffffffffffffffffffffffffffffffffffffffffffffffffffffffff1916908160001a905350600485901c945080614232906154e9565b905061419c565b506000841461427d576040517f08c379a000000000000000000000000000000000000000000000000000000000815260040161427490614cff565b60405180910390fd5b8091505092915050565b82805461429390615513565b90600052602060002090601f0160209004810192826142b557600085556142fc565b82601f106142ce57805160ff19168380011785556142fc565b828001600101855582156142fc579182015b828111156142fb5782518255916020019190600101906142e0565b5b509050614309919061434d565b5090565b50805461431990615513565b6000825580601f1061432b575061434a565b601f016020900490600052602060002090810190614349919061434d565b5b50565b5b8082111561436657600081600090555060010161434e565b5090565b600061437d614378846152b1565b61528c565b905082815260208101848484011115614399576143986156af565b5b6143a48482856154a7565b509392505050565b6000813590506143bb81615f54565b92915050565b6000813590506143d081615f6b565b92915050565b6000813590506143e581615f82565b92915050565b600082601f830112614400576143ff6156aa565b5b813561441084826020860161436a565b91505092915050565b60008135905061442881615f99565b92915050565b600060208284031215614444576144436156b9565b5b6000614452848285016143c1565b91505092915050565b60008060408385031215614472576144716156b9565b5b6000614480858286016143c1565b9250506020614491858286016143ac565b9150509250929050565b6000602082840312156144b1576144b06156b9565b5b60006144bf848285016143d6565b91505092915050565b6000602082840312156144de576144dd6156b9565b5b60006144ec84828501614419565b91505092915050565b600080600080600060a08688031215614511576145106156b9565b5b600061451f88828901614419565b955050602061453088828901614419565b945050604061454188828901614419565b935050606086013567ffffffffffffffff811115614562576145616156b4565b5b61456e888289016143eb565b925050608061457f888289016143ac565b9150509295509295909350565b61459581615429565b82525050565b6145a48161543b565b82525050565b6145b381615447565b82525050565b60006145c4826152e2565b6145ce81856152f8565b93506145de8185602086016154b6565b6145e7816156be565b840191505092915050565b60006145fd826152e2565b6146078185615309565b93506146178185602086016154b6565b80840191505092915050565b60006146306020836152f8565b915061463b826156cf565b602082019050919050565b60006146536023836152f8565b915061465e826156f8565b604082019050919050565b6000614676601c836152f8565b915061468182615747565b602082019050919050565b6000614699603e836152f8565b91506146a482615770565b604082019050919050565b60006146bc6022836152f8565b91506146c7826157bf565b604082019050919050565b60006146df601b836152f8565b91506146ea8261580e565b602082019050919050565b60006147026028836152f8565b915061470d82615837565b604082019050919050565b6000614725602d836152f8565b915061473082615886565b604082019050919050565b60006147486018836152f8565b9150614753826158d5565b602082019050919050565b600061476b6022836152f8565b9150614776826158fe565b604082019050919050565b600061478e600a836152f8565b91506147998261594d565b602082019050919050565b60006147b1600783615309565b91506147bc82615976565b600782019050919050565b60006147d46015836152f8565b91506147df8261599f565b602082019050919050565b60006147f76015836152f8565b9150614802826159c8565b602082019050919050565b600061481a601e836152f8565b9150614825826159f1565b602082019050919050565b600061483d600e836152f8565b915061484882615a1a565b602082019050919050565b60006148606028836152f8565b915061486b82615a43565b604082019050919050565b6000614883601d836152f8565b915061488e82615a92565b602082019050919050565b60006148a6601d836152f8565b91506148b182615abb565b602082019050919050565b60006148c96018836152f8565b91506148d482615ae4565b602082019050919050565b60006148ec600c836152f8565b91506148f782615b0d565b602082019050919050565b600061490f6018836152f8565b915061491a82615b36565b602082019050919050565b60006149326006836152f8565b915061493d82615b5f565b602082019050919050565b60006149556015836152f8565b915061496082615b88565b602082019050919050565b60006149786021836152f8565b915061498382615bb1565b604082019050919050565b600061499b6000836152ed565b91506149a682615c00565b600082019050919050565b60006149be601e836152f8565b91506149c982615c03565b602082019050919050565b60006149e16023836152f8565b91506149ec82615c2c565b604082019050919050565b6000614a046023836152f8565b9150614a0f82615c7b565b604082019050919050565b6000614a276019836152f8565b9150614a3282615cca565b602082019050919050565b6000614a4a601783615309565b9150614a5582615cf3565b601782019050919050565b6000614a6d6026836152f8565b9150614a7882615d1c565b604082019050919050565b6000614a90600b836152f8565b9150614a9b82615d6b565b602082019050919050565b6000614ab3600b836152f8565b9150614abe82615d94565b602082019050919050565b6000614ad66019836152f8565b9150614ae182615dbd565b602082019050919050565b6000614af96017836152f8565b9150614b0482615de6565b602082019050919050565b6000614b1c601f836152f8565b9150614b2782615e0f565b602082019050919050565b6000614b3f601e836152f8565b9150614b4a82615e38565b602082019050919050565b6000614b62601d836152f8565b9150614b6d82615e61565b602082019050919050565b6000614b85600e83615309565b9150614b9082615e8a565b600e82019050919050565b6000614ba8601183615309565b9150614bb382615eb3565b601182019050919050565b6000614bcb602f836152f8565b9150614bd682615edc565b604082019050919050565b6000614bee6013836152f8565b9150614bf982615f2b565b602082019050919050565b614c0d8161549d565b82525050565b6000614c1e826147a4565b9150819050919050565b6000614c338261498e565b9150819050919050565b6000614c4882614a3d565b9150614c5482856145f2565b9150614c5f82614b9b565b9150614c6b82846145f2565b91508190509392505050565b6000614c8282614b78565b9150819050919050565b6000602082019050614ca1600083018461458c565b92915050565b6000602082019050614cbc600083018461459b565b92915050565b6000602082019050614cd760008301846145aa565b92915050565b60006020820190508181036000830152614cf781846145b9565b905092915050565b60006020820190508181036000830152614d1881614623565b9050919050565b60006020820190508181036000830152614d3881614646565b9050919050565b60006020820190508181036000830152614d5881614669565b9050919050565b60006020820190508181036000830152614d788161468c565b9050919050565b60006020820190508181036000830152614d98816146af565b9050919050565b60006020820190508181036000830152614db8816146d2565b9050919050565b60006020820190508181036000830152614dd8816146f5565b9050919050565b60006020820190508181036000830152614df881614718565b9050919050565b60006020820190508181036000830152614e188161473b565b9050919050565b60006020820190508181036000830152614e388161475e565b9050919050565b60006020820190508181036000830152614e5881614781565b9050919050565b60006020820190508181036000830152614e78816147c7565b9050919050565b60006020820190508181036000830152614e98816147ea565b9050919050565b60006020820190508181036000830152614eb88161480d565b9050919050565b60006020820190508181036000830152614ed881614830565b9050919050565b60006020820190508181036000830152614ef881614853565b9050919050565b60006020820190508181036000830152614f1881614876565b9050919050565b60006020820190508181036000830152614f3881614899565b9050919050565b60006020820190508181036000830152614f58816148bc565b9050919050565b60006020820190508181036000830152614f78816148df565b9050919050565b60006020820190508181036000830152614f9881614902565b9050919050565b60006020820190508181036000830152614fb881614925565b9050919050565b60006020820190508181036000830152614fd881614948565b9050919050565b60006020820190508181036000830152614ff88161496b565b9050919050565b60006020820190508181036000830152615018816149b1565b9050919050565b60006020820190508181036000830152615038816149d4565b9050919050565b60006020820190508181036000830152615058816149f7565b9050919050565b6000602082019050818103600083015261507881614a1a565b9050919050565b6000602082019050818103600083015261509881614a60565b9050919050565b600060208201905081810360008301526150b881614a83565b9050919050565b600060208201905081810360008301526150d881614aa6565b9050919050565b600060208201905081810360008301526150f881614ac9565b9050919050565b6000602082019050818103600083015261511881614aec565b9050919050565b6000602082019050818103600083015261513881614b0f565b9050919050565b6000602082019050818103600083015261515881614b32565b9050919050565b6000602082019050818103600083015261517881614b55565b9050919050565b6000602082019050818103600083015261519881614bbe565b9050919050565b600060208201905081810360008301526151b881614be1565b9050919050565b60006020820190506151d46000830184614c04565b92915050565b6000610160820190506151f0600083018e614c04565b6151fd602083018d614c04565b61520a604083018c614c04565b818103606083015261521c818b6145b9565b905061522b608083018a61458c565b61523860a083018961458c565b61524560c083018861458c565b61525260e083018761459b565b61526061010083018661459b565b61526e61012083018561459b565b61527c61014083018461459b565b9c9b505050505050505050505050565b60006152966152a7565b90506152a28282615545565b919050565b6000604051905090565b600067ffffffffffffffff8211156152cc576152cb61567b565b5b6152d5826156be565b9050602081019050919050565b600081519050919050565b600081905092915050565b600082825260208201905092915050565b600081905092915050565b600061531f8261549d565b915061532a8361549d565b9250827fffffffffffffffffffffffffffffffffffffffffffffffffffffffffffffffff0382111561535f5761535e6155bf565b5b828201905092915050565b60006153758261549d565b91506153808361549d565b9250826153905761538f6155ee565b5b828204905092915050565b60006153a68261549d565b91506153b18361549d565b9250817fffffffffffffffffffffffffffffffffffffffffffffffffffffffffffffffff04831182151516156153ea576153e96155bf565b5b828202905092915050565b60006154008261549d565b915061540b8361549d565b92508282101561541e5761541d6155bf565b5b828203905092915050565b60006154348261547d565b9050919050565b60008115159050919050565b6000819050919050565b60007fffffffff0000000000000000000000000000000000000000000000000000000082169050919050565b600073ffffffffffffffffffffffffffffffffffffffff82169050919050565b6000819050919050565b82818337600083830152505050565b60005b838110156154d45780820151818401526020810190506154b9565b838111156154e3576000848401525b50505050565b60006154f48261549d565b91506000821415615508576155076155bf565b5b600182039050919050565b6000600282049050600182168061552b57607f821691505b6020821081141561553f5761553e61561d565b5b50919050565b61554e826156be565b810181811067ffffffffffffffff8211171561556d5761556c61567b565b5b80604052505050565b60006155818261549d565b91507fffffffffffffffffffffffffffffffffffffffffffffffffffffffffffffffff8214156155b4576155b36155bf565b5b600182019050919050565b7f4e487b7100000000000000000000000000000000000000000000000000000000600052601160045260246000fd5b7f4e487b7100000000000000000000000000000000000000000000000000000000600052601260045260246000fd5b7f4e487b7100000000000000000000000000000000000000000000000000000000600052602260045260246000fd5b7f4e487b7100000000000000000000000000000000000000000000000000000000600052603260045260246000fd5b7f4e487b7100000000000000000000000000000000000000000000000000000000600052604160045260246000fd5b600080fd5b600080fd5b600080fd5b600080fd5b6000601f19601f8301169050919050565b7f537472696e67733a20686578206c656e67746820696e73756666696369656e74600082015250565b7f4d6167696342726963733a20706c6f74206f776e6572206e6f7420616c6c6f7760008201527f6564210000000000000000000000000000000000000000000000000000000000602082015250565b7f4d6167696342726963733a206f6e6c7920706c6f74206f776e65722100000000600082015250565b7f4d6167696342726963733a20627579657220686176656e2774206465706f736960008201527f7465642074686520646966666572656e636520616d6f756e7420796574210000602082015250565b7f4d61726b65743a20696e70757420636f727265637420706c6f74206e756d626560008201527f7221000000000000000000000000000000000000000000000000000000000000602082015250565b7f4d61726b65743a2073656e64203e3d206d696e204465706f7369740000000000600082015250565b7f4d61726b65743a206f66666572206e6f74206163636570746564206279206f7760008201527f6e65722079657421000000000000000000000000000000000000000000000000602082015250565b7f4d6167696342726963733a2067657420617574686f72697a6174696f6e20627960008201527f2061646d696e2066697273742100000000000000000000000000000000000000602082015250565b7f4d6167696342726963733a203078302061646472657373210000000000000000600082015250565b7f4d61726b65743a206f6e6c79206f6e65206f666665722070657220706572736f60008201527f6e21000000000000000000000000000000000000000000000000000000000000602082015250565b7f302062616c616e63652100000000000000000000000000000000000000000000600082015250565b7f5265616c746f7200000000000000000000000000000000000000000000000000600082015250565b7f4d61726b65743a207a65726f2062616c616e6365210000000000000000000000600082015250565b7f4d61726b65743a206e6f7420666f722073616c65210000000000000000000000600082015250565b7f4d61726b65743a2073656e64207269676874206c697374696e67466565210000600082015250565b7f6f6e6c79207265616c746f727321000000000000000000000000000000000000600082015250565b7f4d61726b65743a206f776e657220616c7265616479206163636570746564206160008201527f6e206f6666657221000000000000000000000000000000000000000000000000602082015250565b7f4d6167696342726963733a206465706f73697420636f6d706c65746521000000600082015250565b7f6f6e6c79206166746572203134206461797320706f73742073616c6521000000600082015250565b7f4d61726b65743a20616c7265647920666f722073616c65210000000000000000600082015250565b7f6e6f7420616c6c6f776564210000000000000000000000000000000000000000600082015250565b7f4d61726b65743a206e6f206f6666657220627920796f75210000000000000000600082015250565b7f4574682054460000000000000000000000000000000000000000000000000000600082015250565b7f4d61726b65743a20616c726561647920736f6c64210000000000000000000000600082015250565b7f4d61726b65743a206f6e6c792072656769737465726564207265616c746f727360008201527f2100000000000000000000000000000000000000000000000000000000000000602082015250565b50565b7f4d6167696342726963733a2073656e6420726967687420616d6f756e74210000600082015250565b7f4d61726b65743a2070726f7065727479206f776e6572206e6f7420616c6c6f7760008201527f6564210000000000000000000000000000000000000000000000000000000000602082015250565b7f4d6167696342726963733a206f6e6c7920617574686f72697a652073656c6c6560008201527f7273210000000000000000000000000000000000000000000000000000000000602082015250565b7f4d61726b65743a20616c72656164792061636365707465642100000000000000600082015250565b7f416363657373436f6e74726f6c3a206163636f756e7420000000000000000000600082015250565b7f4d61726b65743a2072656769737465722070726f7065727479206f6e20706c6160008201527f7466726f6d210000000000000000000000000000000000000000000000000000602082015250565b7f6f6e6c7920627579657221000000000000000000000000000000000000000000600082015250565b7f6e6f74206c697374656421000000000000000000000000000000000000000000600082015250565b7f4d61726b65743a206e6f20627579206f66666572207965742100000000000000600082015250565b7f4d6167696342726963733a206f6e6c79206f776e657221000000000000000000600082015250565b7f5265656e7472616e637947756172643a207265656e7472616e742063616c6c00600082015250565b7f796f75206172656e2774206167656e74206f66207468697320706c6f74210000600082015250565b7f4d61726b65743a206e6f206f66666572206d61646520627920796f7521000000600082015250565b7f50726f7065727479204f776e6572000000000000000000000000000000000000600082015250565b7f206973206d697373696e6720726f6c6520000000000000000000000000000000600082015250565b7f416363657373436f6e74726f6c3a2063616e206f6e6c792072656e6f756e636560008201527f20726f6c657320666f722073656c660000000000000000000000000000000000602082015250565b7f4d61726b65743a206f6e6c79206f776e65722100000000000000000000000000600082015250565b615f5d81615429565b8114615f6857600080fd5b50565b615f7481615447565b8114615f7f57600080fd5b50565b615f8b81615451565b8114615f9657600080fd5b50565b615fa28161549d565b8114615fad57600080fd5b5056fea26469706673582212207b9f30a8bf806b4aa682afbcc708f3111a8e704d31ae63fae19a03d15e3d12fe64736f6c63430008070033",
  "linkReferences": {},
  "deployedLinkReferences": {}
}